{
  "contractName": "VolcanoToken",
  "abi": [
    {
      "inputs": [],
      "stateMutability": "nonpayable",
      "type": "constructor"
    },
    {
      "anonymous": false,
      "inputs": [
        {
          "indexed": true,
          "internalType": "address",
          "name": "owner",
          "type": "address"
        },
        {
          "indexed": true,
          "internalType": "address",
          "name": "approved",
          "type": "address"
        },
        {
          "indexed": true,
          "internalType": "uint256",
          "name": "tokenId",
          "type": "uint256"
        }
      ],
      "name": "Approval",
      "type": "event"
    },
    {
      "anonymous": false,
      "inputs": [
        {
          "indexed": true,
          "internalType": "address",
          "name": "owner",
          "type": "address"
        },
        {
          "indexed": true,
          "internalType": "address",
          "name": "operator",
          "type": "address"
        },
        {
          "indexed": false,
          "internalType": "bool",
          "name": "approved",
          "type": "bool"
        }
      ],
      "name": "ApprovalForAll",
      "type": "event"
    },
    {
      "anonymous": false,
      "inputs": [
        {
          "indexed": true,
          "internalType": "address",
          "name": "from",
          "type": "address"
        },
        {
          "indexed": true,
          "internalType": "address",
          "name": "to",
          "type": "address"
        },
        {
          "indexed": true,
          "internalType": "uint256",
          "name": "tokenId",
          "type": "uint256"
        }
      ],
      "name": "Transfer",
      "type": "event"
    },
    {
      "inputs": [
        {
          "internalType": "address",
          "name": "to",
          "type": "address"
        },
        {
          "internalType": "uint256",
          "name": "tokenId",
          "type": "uint256"
        }
      ],
      "name": "approve",
      "outputs": [],
      "stateMutability": "nonpayable",
      "type": "function"
    },
    {
      "inputs": [
        {
          "internalType": "address",
          "name": "owner",
          "type": "address"
        }
      ],
      "name": "balanceOf",
      "outputs": [
        {
          "internalType": "uint256",
          "name": "",
          "type": "uint256"
        }
      ],
      "stateMutability": "view",
      "type": "function",
      "constant": true
    },
    {
      "inputs": [
        {
          "internalType": "uint256",
          "name": "tokenId",
          "type": "uint256"
        }
      ],
      "name": "getApproved",
      "outputs": [
        {
          "internalType": "address",
          "name": "",
          "type": "address"
        }
      ],
      "stateMutability": "view",
      "type": "function",
      "constant": true
    },
    {
      "inputs": [
        {
          "internalType": "address",
          "name": "owner",
          "type": "address"
        },
        {
          "internalType": "address",
          "name": "operator",
          "type": "address"
        }
      ],
      "name": "isApprovedForAll",
      "outputs": [
        {
          "internalType": "bool",
          "name": "",
          "type": "bool"
        }
      ],
      "stateMutability": "view",
      "type": "function",
      "constant": true
    },
    {
      "inputs": [],
      "name": "name",
      "outputs": [
        {
          "internalType": "string",
          "name": "",
          "type": "string"
        }
      ],
      "stateMutability": "view",
      "type": "function",
      "constant": true
    },
    {
      "inputs": [
        {
          "internalType": "uint256",
          "name": "tokenId",
          "type": "uint256"
        }
      ],
      "name": "ownerOf",
      "outputs": [
        {
          "internalType": "address",
          "name": "",
          "type": "address"
        }
      ],
      "stateMutability": "view",
      "type": "function",
      "constant": true
    },
    {
      "inputs": [
        {
          "internalType": "address",
          "name": "from",
          "type": "address"
        },
        {
          "internalType": "address",
          "name": "to",
          "type": "address"
        },
        {
          "internalType": "uint256",
          "name": "tokenId",
          "type": "uint256"
        }
      ],
      "name": "safeTransferFrom",
      "outputs": [],
      "stateMutability": "nonpayable",
      "type": "function"
    },
    {
      "inputs": [
        {
          "internalType": "address",
          "name": "from",
          "type": "address"
        },
        {
          "internalType": "address",
          "name": "to",
          "type": "address"
        },
        {
          "internalType": "uint256",
          "name": "tokenId",
          "type": "uint256"
        },
        {
          "internalType": "bytes",
          "name": "_data",
          "type": "bytes"
        }
      ],
      "name": "safeTransferFrom",
      "outputs": [],
      "stateMutability": "nonpayable",
      "type": "function"
    },
    {
      "inputs": [
        {
          "internalType": "address",
          "name": "operator",
          "type": "address"
        },
        {
          "internalType": "bool",
          "name": "approved",
          "type": "bool"
        }
      ],
      "name": "setApprovalForAll",
      "outputs": [],
      "stateMutability": "nonpayable",
      "type": "function"
    },
    {
      "inputs": [
        {
          "internalType": "bytes4",
          "name": "interfaceId",
          "type": "bytes4"
        }
      ],
      "name": "supportsInterface",
      "outputs": [
        {
          "internalType": "bool",
          "name": "",
          "type": "bool"
        }
      ],
      "stateMutability": "view",
      "type": "function",
      "constant": true
    },
    {
      "inputs": [],
      "name": "symbol",
      "outputs": [
        {
          "internalType": "string",
          "name": "",
          "type": "string"
        }
      ],
      "stateMutability": "view",
      "type": "function",
      "constant": true
    },
    {
      "inputs": [
        {
          "internalType": "address",
          "name": "from",
          "type": "address"
        },
        {
          "internalType": "address",
          "name": "to",
          "type": "address"
        },
        {
          "internalType": "uint256",
          "name": "tokenId",
          "type": "uint256"
        }
      ],
      "name": "transferFrom",
      "outputs": [],
      "stateMutability": "nonpayable",
      "type": "function"
    },
    {
      "inputs": [],
      "name": "mintToken",
      "outputs": [],
      "stateMutability": "nonpayable",
      "type": "function"
    },
    {
      "inputs": [
        {
          "internalType": "uint256",
          "name": "_tokenId",
          "type": "uint256"
        }
      ],
      "name": "burnToken",
      "outputs": [],
      "stateMutability": "nonpayable",
      "type": "function"
    },
    {
      "inputs": [
        {
          "internalType": "uint256",
          "name": "_tokenId",
          "type": "uint256"
        }
      ],
      "name": "tokenURI",
      "outputs": [
        {
          "internalType": "string",
          "name": "",
          "type": "string"
        }
      ],
      "stateMutability": "view",
      "type": "function",
      "constant": true
    },
    {
      "inputs": [
        {
          "internalType": "address",
          "name": "_account",
          "type": "address"
        }
      ],
      "name": "getTokenMetadata",
      "outputs": [
        {
          "components": [
            {
              "internalType": "uint256",
              "name": "timestamp",
              "type": "uint256"
            },
            {
              "internalType": "uint256",
              "name": "tokenId",
              "type": "uint256"
            },
            {
              "internalType": "string",
              "name": "tokenURI",
              "type": "string"
            }
          ],
          "internalType": "struct VolcanoToken.Metadata[]",
          "name": "",
          "type": "tuple[]"
        }
      ],
      "stateMutability": "view",
      "type": "function",
      "constant": true
    }
  ],
  "bytecode": "0x608060405260016006553480156200001657600080fd5b506040518060400160405280600c81526020017f566f6c63616e6f546f6b656e00000000000000000000000000000000000000008152506040518060400160405280600381526020017f564f4c000000000000000000000000000000000000000000000000000000000081525081600090805190602001906200009b929190620000bd565b508060019080519060200190620000b4929190620000bd565b505050620001d2565b828054620000cb906200019c565b90600052602060002090601f016020900481019282620000ef57600085556200013b565b82601f106200010a57805160ff19168380011785556200013b565b828001600101855582156200013b579182015b828111156200013a5782518255916020019190600101906200011d565b5b5090506200014a91906200014e565b5090565b5b80821115620001695760008160009055506001016200014f565b5090565b7f4e487b7100000000000000000000000000000000000000000000000000000000600052602260045260246000fd5b60006002820490506001821680620001b557607f821691505b60208210811415620001cc57620001cb6200016d565b5b50919050565b612f6c80620001e26000396000f3fe608060405234801561001057600080fd5b50600436106101005760003560e01c806370a0823111610097578063b88d4fde11610066578063b88d4fde14610297578063c00f14ab146102b3578063c87b56dd146102e3578063e985e9c51461031357610100565b806370a08231146102115780637b47ec1a1461024157806395d89b411461025d578063a22cb4651461027b57610100565b80632004ffd9116100d35780632004ffd91461019f57806323b872dd146101a957806342842e0e146101c55780636352211e146101e157610100565b806301ffc9a71461010557806306fdde0314610135578063081812fc14610153578063095ea7b314610183575b600080fd5b61011f600480360381019061011a9190611e36565b610343565b60405161012c9190611e7e565b60405180910390f35b61013d610425565b60405161014a9190611f32565b60405180910390f35b61016d60048036038101906101689190611f8a565b6104b7565b60405161017a9190611ff8565b60405180910390f35b61019d6004803603810190610198919061203f565b61053c565b005b6101a7610654565b005b6101c360048036038101906101be919061207f565b610750565b005b6101df60048036038101906101da919061207f565b6107b0565b005b6101fb60048036038101906101f69190611f8a565b6107d0565b6040516102089190611ff8565b60405180910390f35b61022b600480360381019061022691906120d2565b610882565b604051610238919061210e565b60405180910390f35b61025b60048036038101906102569190611f8a565b61093a565b005b61026561098f565b6040516102729190611f32565b60405180910390f35b61029560048036038101906102909190612155565b610a21565b005b6102b160048036038101906102ac91906122ca565b610ba2565b005b6102cd60048036038101906102c891906120d2565b610c04565b6040516102da91906124b8565b60405180910390f35b6102fd60048036038101906102f89190611f8a565b610d48565b60405161030a9190611f32565b60405180910390f35b61032d600480360381019061032891906124da565b610d5a565b60405161033a9190611e7e565b60405180910390f35b60007f80ac58cd000000000000000000000000000000000000000000000000000000007bffffffffffffffffffffffffffffffffffffffffffffffffffffffff1916827bffffffffffffffffffffffffffffffffffffffffffffffffffffffff1916148061040e57507f5b5e139f000000000000000000000000000000000000000000000000000000007bffffffffffffffffffffffffffffffffffffffffffffffffffffffff1916827bffffffffffffffffffffffffffffffffffffffffffffffffffffffff1916145b8061041e575061041d82610dee565b5b9050919050565b60606000805461043490612549565b80601f016020809104026020016040519081016040528092919081815260200182805461046090612549565b80156104ad5780601f10610482576101008083540402835291602001916104ad565b820191906000526020600020905b81548152906001019060200180831161049057829003601f168201915b5050505050905090565b60006104c282610e58565b610501576040517f08c379a00000000000000000000000000000000000000000000000000000000081526004016104f8906125ed565b60405180910390fd5b6004600083815260200190815260200160002060009054906101000a900473ffffffffffffffffffffffffffffffffffffffff169050919050565b6000610547826107d0565b90508073ffffffffffffffffffffffffffffffffffffffff168373ffffffffffffffffffffffffffffffffffffffff1614156105b8576040517f08c379a00000000000000000000000000000000000000000000000000000000081526004016105af9061267f565b60405180910390fd5b8073ffffffffffffffffffffffffffffffffffffffff166105d7610ec4565b73ffffffffffffffffffffffffffffffffffffffff161480610606575061060581610600610ec4565b610d5a565b5b610645576040517f08c379a000000000000000000000000000000000000000000000000000000000815260040161063c90612711565b60405180910390fd5b61064f8383610ecc565b505050565b61066033600654610f85565b600060405180606001604052804281526020016006548152602001604051806080016040528060438152602001612ef4604391398152509050600760003373ffffffffffffffffffffffffffffffffffffffff1673ffffffffffffffffffffffffffffffffffffffff16815260200190815260200160002081908060018154018082558091505060019003906000526020600020906003020160009091909190915060008201518160000155602082015181600101556040820151816002019080519060200190610732929190611c8c565b5050506006600081548092919061074890612760565b919050555050565b61076161075b610ec4565b82610fa3565b6107a0576040517f08c379a00000000000000000000000000000000000000000000000000000000081526004016107979061281b565b60405180910390fd5b6107ab838383611081565b505050565b6107cb83838360405180602001604052806000815250610ba2565b505050565b6000806002600084815260200190815260200160002060009054906101000a900473ffffffffffffffffffffffffffffffffffffffff169050600073ffffffffffffffffffffffffffffffffffffffff168173ffffffffffffffffffffffffffffffffffffffff161415610879576040517f08c379a0000000000000000000000000000000000000000000000000000000008152600401610870906128ad565b60405180910390fd5b80915050919050565b60008073ffffffffffffffffffffffffffffffffffffffff168273ffffffffffffffffffffffffffffffffffffffff1614156108f3576040517f08c379a00000000000000000000000000000000000000000000000000000000081526004016108ea9061293f565b60405180910390fd5b600360008373ffffffffffffffffffffffffffffffffffffffff1673ffffffffffffffffffffffffffffffffffffffff168152602001908152602001600020549050919050565b3373ffffffffffffffffffffffffffffffffffffffff1661095a826107d0565b73ffffffffffffffffffffffffffffffffffffffff161461097a57600080fd5b610983816112dd565b61098c816113ee565b50565b60606001805461099e90612549565b80601f01602080910402602001604051908101604052809291908181526020018280546109ca90612549565b8015610a175780601f106109ec57610100808354040283529160200191610a17565b820191906000526020600020905b8154815290600101906020018083116109fa57829003601f168201915b5050505050905090565b610a29610ec4565b73ffffffffffffffffffffffffffffffffffffffff168273ffffffffffffffffffffffffffffffffffffffff161415610a97576040517f08c379a0000000000000000000000000000000000000000000000000000000008152600401610a8e906129ab565b60405180910390fd5b8060056000610aa4610ec4565b73ffffffffffffffffffffffffffffffffffffffff1673ffffffffffffffffffffffffffffffffffffffff16815260200190815260200160002060008473ffffffffffffffffffffffffffffffffffffffff1673ffffffffffffffffffffffffffffffffffffffff16815260200190815260200160002060006101000a81548160ff0219169083151502179055508173ffffffffffffffffffffffffffffffffffffffff16610b51610ec4565b73ffffffffffffffffffffffffffffffffffffffff167f17307eab39ab6107e8899845ad3d59bd9653f200f220920489ca2b5937696c3183604051610b969190611e7e565b60405180910390a35050565b610bb3610bad610ec4565b83610fa3565b610bf2576040517f08c379a0000000000000000000000000000000000000000000000000000000008152600401610be99061281b565b60405180910390fd5b610bfe84848484611678565b50505050565b6060600760008373ffffffffffffffffffffffffffffffffffffffff1673ffffffffffffffffffffffffffffffffffffffff168152602001908152602001600020805480602002602001604051908101604052809291908181526020016000905b82821015610d3d57838290600052602060002090600302016040518060600160405290816000820154815260200160018201548152602001600282018054610cac90612549565b80601f0160208091040260200160405190810160405280929190818152602001828054610cd890612549565b8015610d255780601f10610cfa57610100808354040283529160200191610d25565b820191906000526020600020905b815481529060010190602001808311610d0857829003601f168201915b50505050508152505081526020019060010190610c65565b505050509050919050565b6060610d53826116d4565b9050919050565b6000600560008473ffffffffffffffffffffffffffffffffffffffff1673ffffffffffffffffffffffffffffffffffffffff16815260200190815260200160002060008373ffffffffffffffffffffffffffffffffffffffff1673ffffffffffffffffffffffffffffffffffffffff16815260200190815260200160002060009054906101000a900460ff16905092915050565b60007f01ffc9a7000000000000000000000000000000000000000000000000000000007bffffffffffffffffffffffffffffffffffffffffffffffffffffffff1916827bffffffffffffffffffffffffffffffffffffffffffffffffffffffff1916149050919050565b60008073ffffffffffffffffffffffffffffffffffffffff166002600084815260200190815260200160002060009054906101000a900473ffffffffffffffffffffffffffffffffffffffff1673ffffffffffffffffffffffffffffffffffffffff1614159050919050565b600033905090565b816004600083815260200190815260200160002060006101000a81548173ffffffffffffffffffffffffffffffffffffffff021916908373ffffffffffffffffffffffffffffffffffffffff160217905550808273ffffffffffffffffffffffffffffffffffffffff16610f3f836107d0565b73ffffffffffffffffffffffffffffffffffffffff167f8c5be1e5ebec7d5bd14f71427d1e84f3dd0314c0f7b2291e5b200ac8c7c3b92560405160405180910390a45050565b610f9f8282604051806020016040528060008152506118c3565b5050565b6000610fae82610e58565b610fed576040517f08c379a0000000000000000000000000000000000000000000000000000000008152600401610fe490612a3d565b60405180910390fd5b6000610ff8836107d0565b90508073ffffffffffffffffffffffffffffffffffffffff168473ffffffffffffffffffffffffffffffffffffffff16148061106757508373ffffffffffffffffffffffffffffffffffffffff1661104f846104b7565b73ffffffffffffffffffffffffffffffffffffffff16145b8061107857506110778185610d5a565b5b91505092915050565b8273ffffffffffffffffffffffffffffffffffffffff166110a1826107d0565b73ffffffffffffffffffffffffffffffffffffffff16146110f7576040517f08c379a00000000000000000000000000000000000000000000000000000000081526004016110ee90612acf565b60405180910390fd5b600073ffffffffffffffffffffffffffffffffffffffff168273ffffffffffffffffffffffffffffffffffffffff161415611167576040517f08c379a000000000000000000000000000000000000000000000000000000000815260040161115e90612b61565b60405180910390fd5b61117283838361191e565b61117d600082610ecc565b6001600360008573ffffffffffffffffffffffffffffffffffffffff1673ffffffffffffffffffffffffffffffffffffffff16815260200190815260200160002060008282546111cd9190612b81565b925050819055506001600360008473ffffffffffffffffffffffffffffffffffffffff1673ffffffffffffffffffffffffffffffffffffffff16815260200190815260200160002060008282546112249190612bb5565b92505081905550816002600083815260200190815260200160002060006101000a81548173ffffffffffffffffffffffffffffffffffffffff021916908373ffffffffffffffffffffffffffffffffffffffff160217905550808273ffffffffffffffffffffffffffffffffffffffff168473ffffffffffffffffffffffffffffffffffffffff167fddf252ad1be2c89b69c2b068fc378daa952ba7f163c4a11628f55a4df523b3ef60405160405180910390a4505050565b60006112e8826107d0565b90506112f68160008461191e565b611301600083610ecc565b6001600360008373ffffffffffffffffffffffffffffffffffffffff1673ffffffffffffffffffffffffffffffffffffffff16815260200190815260200160002060008282546113519190612b81565b925050819055506002600083815260200190815260200160002060006101000a81549073ffffffffffffffffffffffffffffffffffffffff021916905581600073ffffffffffffffffffffffffffffffffffffffff168273ffffffffffffffffffffffffffffffffffffffff167fddf252ad1be2c89b69c2b068fc378daa952ba7f163c4a11628f55a4df523b3ef60405160405180910390a45050565b6000600760003373ffffffffffffffffffffffffffffffffffffffff1673ffffffffffffffffffffffffffffffffffffffff168152602001908152602001600020805480602002602001604051908101604052809291908181526020016000905b828210156115275783829060005260206000209060030201604051806060016040529081600082015481526020016001820154815260200160028201805461149690612549565b80601f01602080910402602001604051908101604052809291908181526020018280546114c290612549565b801561150f5780601f106114e45761010080835404028352916020019161150f565b820191906000526020600020905b8154815290600101906020018083116114f257829003601f168201915b5050505050815250508152602001906001019061144f565b505050509050600760003373ffffffffffffffffffffffffffffffffffffffff1673ffffffffffffffffffffffffffffffffffffffff16815260200190815260200160002060006115789190611d12565b60005b8151811015611673578282828151811061159857611597612c0b565b5b6020026020010151602001511461166057600760003373ffffffffffffffffffffffffffffffffffffffff1673ffffffffffffffffffffffffffffffffffffffff1681526020019081526020016000208282815181106115fb576115fa612c0b565b5b602002602001015190806001815401808255809150506001900390600052602060002090600302016000909190919091506000820151816000015560208201518160010155604082015181600201908051906020019061165c929190611c8c565b5050505b808061166b90612760565b91505061157b565b505050565b611683848484611081565b61168f84848484611923565b6116ce576040517f08c379a00000000000000000000000000000000000000000000000000000000081526004016116c590612cac565b60405180910390fd5b50505050565b60606000600760003373ffffffffffffffffffffffffffffffffffffffff1673ffffffffffffffffffffffffffffffffffffffff168152602001908152602001600020805480602002602001604051908101604052809291908181526020016000905b8282101561180f5783829060005260206000209060030201604051806060016040529081600082015481526020016001820154815260200160028201805461177e90612549565b80601f01602080910402602001604051908101604052809291908181526020018280546117aa90612549565b80156117f75780601f106117cc576101008083540402835291602001916117f7565b820191906000526020600020905b8154815290600101906020018083116117da57829003601f168201915b50505050508152505081526020019060010190611737565b50505050905060005b8151811015611882578382828151811061183557611834612c0b565b5b602002602001015160200151141561186f5781818151811061185a57611859612c0b565b5b602002602001015160400151925050506118be565b808061187a90612760565b915050611818565b506040517f08c379a00000000000000000000000000000000000000000000000000000000081526004016118b590612d18565b60405180910390fd5b919050565b6118cd8383611aab565b6118da6000848484611923565b611919576040517f08c379a000000000000000000000000000000000000000000000000000000000815260040161191090612cac565b60405180910390fd5b505050565b505050565b60006119448473ffffffffffffffffffffffffffffffffffffffff16611c79565b15611a9e578373ffffffffffffffffffffffffffffffffffffffff1663150b7a0261196d610ec4565b8786866040518563ffffffff1660e01b815260040161198f9493929190612d8d565b6020604051808303816000875af19250505080156119cb57506040513d601f19601f820116820180604052508101906119c89190612dee565b60015b611a4e573d80600081146119fb576040519150601f19603f3d011682016040523d82523d6000602084013e611a00565b606091505b50600081511415611a46576040517f08c379a0000000000000000000000000000000000000000000000000000000008152600401611a3d90612cac565b60405180910390fd5b805181602001fd5b63150b7a0260e01b7bffffffffffffffffffffffffffffffffffffffffffffffffffffffff1916817bffffffffffffffffffffffffffffffffffffffffffffffffffffffff191614915050611aa3565b600190505b949350505050565b600073ffffffffffffffffffffffffffffffffffffffff168273ffffffffffffffffffffffffffffffffffffffff161415611b1b576040517f08c379a0000000000000000000000000000000000000000000000000000000008152600401611b1290612e67565b60405180910390fd5b611b2481610e58565b15611b64576040517f08c379a0000000000000000000000000000000000000000000000000000000008152600401611b5b90612ed3565b60405180910390fd5b611b706000838361191e565b6001600360008473ffffffffffffffffffffffffffffffffffffffff1673ffffffffffffffffffffffffffffffffffffffff1681526020019081526020016000206000828254611bc09190612bb5565b92505081905550816002600083815260200190815260200160002060006101000a81548173ffffffffffffffffffffffffffffffffffffffff021916908373ffffffffffffffffffffffffffffffffffffffff160217905550808273ffffffffffffffffffffffffffffffffffffffff16600073ffffffffffffffffffffffffffffffffffffffff167fddf252ad1be2c89b69c2b068fc378daa952ba7f163c4a11628f55a4df523b3ef60405160405180910390a45050565b600080823b905060008111915050919050565b828054611c9890612549565b90600052602060002090601f016020900481019282611cba5760008555611d01565b82601f10611cd357805160ff1916838001178555611d01565b82800160010185558215611d01579182015b82811115611d00578251825591602001919060010190611ce5565b5b509050611d0e9190611d36565b5090565b5080546000825560030290600052602060002090810190611d339190611d53565b50565b5b80821115611d4f576000816000905550600101611d37565b5090565b5b80821115611d86576000808201600090556001820160009055600282016000611d7d9190611d8a565b50600301611d54565b5090565b508054611d9690612549565b6000825580601f10611da85750611dc7565b601f016020900490600052602060002090810190611dc69190611d36565b5b50565b6000604051905090565b600080fd5b600080fd5b60007fffffffff0000000000000000000000000000000000000000000000000000000082169050919050565b611e1381611dde565b8114611e1e57600080fd5b50565b600081359050611e3081611e0a565b92915050565b600060208284031215611e4c57611e4b611dd4565b5b6000611e5a84828501611e21565b91505092915050565b60008115159050919050565b611e7881611e63565b82525050565b6000602082019050611e936000830184611e6f565b92915050565b600081519050919050565b600082825260208201905092915050565b60005b83811015611ed3578082015181840152602081019050611eb8565b83811115611ee2576000848401525b50505050565b6000601f19601f8301169050919050565b6000611f0482611e99565b611f0e8185611ea4565b9350611f1e818560208601611eb5565b611f2781611ee8565b840191505092915050565b60006020820190508181036000830152611f4c8184611ef9565b905092915050565b6000819050919050565b611f6781611f54565b8114611f7257600080fd5b50565b600081359050611f8481611f5e565b92915050565b600060208284031215611fa057611f9f611dd4565b5b6000611fae84828501611f75565b91505092915050565b600073ffffffffffffffffffffffffffffffffffffffff82169050919050565b6000611fe282611fb7565b9050919050565b611ff281611fd7565b82525050565b600060208201905061200d6000830184611fe9565b92915050565b61201c81611fd7565b811461202757600080fd5b50565b60008135905061203981612013565b92915050565b6000806040838503121561205657612055611dd4565b5b60006120648582860161202a565b925050602061207585828601611f75565b9150509250929050565b60008060006060848603121561209857612097611dd4565b5b60006120a68682870161202a565b93505060206120b78682870161202a565b92505060406120c886828701611f75565b9150509250925092565b6000602082840312156120e8576120e7611dd4565b5b60006120f68482850161202a565b91505092915050565b61210881611f54565b82525050565b600060208201905061212360008301846120ff565b92915050565b61213281611e63565b811461213d57600080fd5b50565b60008135905061214f81612129565b92915050565b6000806040838503121561216c5761216b611dd4565b5b600061217a8582860161202a565b925050602061218b85828601612140565b9150509250929050565b600080fd5b600080fd5b7f4e487b7100000000000000000000000000000000000000000000000000000000600052604160045260246000fd5b6121d782611ee8565b810181811067ffffffffffffffff821117156121f6576121f561219f565b5b80604052505050565b6000612209611dca565b905061221582826121ce565b919050565b600067ffffffffffffffff8211156122355761223461219f565b5b61223e82611ee8565b9050602081019050919050565b82818337600083830152505050565b600061226d6122688461221a565b6121ff565b9050828152602081018484840111156122895761228861219a565b5b61229484828561224b565b509392505050565b600082601f8301126122b1576122b0612195565b5b81356122c184826020860161225a565b91505092915050565b600080600080608085870312156122e4576122e3611dd4565b5b60006122f28782880161202a565b94505060206123038782880161202a565b935050604061231487828801611f75565b925050606085013567ffffffffffffffff81111561233557612334611dd9565b5b6123418782880161229c565b91505092959194509250565b600081519050919050565b600082825260208201905092915050565b6000819050602082019050919050565b61238281611f54565b82525050565b600082825260208201905092915050565b60006123a482611e99565b6123ae8185612388565b93506123be818560208601611eb5565b6123c781611ee8565b840191505092915050565b60006060830160008301516123ea6000860182612379565b5060208301516123fd6020860182612379565b50604083015184820360408601526124158282612399565b9150508091505092915050565b600061242e83836123d2565b905092915050565b6000602082019050919050565b600061244e8261234d565b6124588185612358565b93508360208202850161246a85612369565b8060005b858110156124a657848403895281516124878582612422565b945061249283612436565b925060208a0199505060018101905061246e565b50829750879550505050505092915050565b600060208201905081810360008301526124d28184612443565b905092915050565b600080604083850312156124f1576124f0611dd4565b5b60006124ff8582860161202a565b92505060206125108582860161202a565b9150509250929050565b7f4e487b7100000000000000000000000000000000000000000000000000000000600052602260045260246000fd5b6000600282049050600182168061256157607f821691505b602082108114156125755761257461251a565b5b50919050565b7f4552433732313a20617070726f76656420717565727920666f72206e6f6e657860008201527f697374656e7420746f6b656e0000000000000000000000000000000000000000602082015250565b60006125d7602c83611ea4565b91506125e28261257b565b604082019050919050565b60006020820190508181036000830152612606816125ca565b9050919050565b7f4552433732313a20617070726f76616c20746f2063757272656e74206f776e6560008201527f7200000000000000000000000000000000000000000000000000000000000000602082015250565b6000612669602183611ea4565b91506126748261260d565b604082019050919050565b600060208201905081810360008301526126988161265c565b9050919050565b7f4552433732313a20617070726f76652063616c6c6572206973206e6f74206f7760008201527f6e6572206e6f7220617070726f76656420666f7220616c6c0000000000000000602082015250565b60006126fb603883611ea4565b91506127068261269f565b604082019050919050565b6000602082019050818103600083015261272a816126ee565b9050919050565b7f4e487b7100000000000000000000000000000000000000000000000000000000600052601160045260246000fd5b600061276b82611f54565b91507fffffffffffffffffffffffffffffffffffffffffffffffffffffffffffffffff82141561279e5761279d612731565b5b600182019050919050565b7f4552433732313a207472616e736665722063616c6c6572206973206e6f74206f60008201527f776e6572206e6f7220617070726f766564000000000000000000000000000000602082015250565b6000612805603183611ea4565b9150612810826127a9565b604082019050919050565b60006020820190508181036000830152612834816127f8565b9050919050565b7f4552433732313a206f776e657220717565727920666f72206e6f6e657869737460008201527f656e7420746f6b656e0000000000000000000000000000000000000000000000602082015250565b6000612897602983611ea4565b91506128a28261283b565b604082019050919050565b600060208201905081810360008301526128c68161288a565b9050919050565b7f4552433732313a2062616c616e636520717565727920666f7220746865207a6560008201527f726f206164647265737300000000000000000000000000000000000000000000602082015250565b6000612929602a83611ea4565b9150612934826128cd565b604082019050919050565b600060208201905081810360008301526129588161291c565b9050919050565b7f4552433732313a20617070726f766520746f2063616c6c657200000000000000600082015250565b6000612995601983611ea4565b91506129a08261295f565b602082019050919050565b600060208201905081810360008301526129c481612988565b9050919050565b7f4552433732313a206f70657261746f7220717565727920666f72206e6f6e657860008201527f697374656e7420746f6b656e0000000000000000000000000000000000000000602082015250565b6000612a27602c83611ea4565b9150612a32826129cb565b604082019050919050565b60006020820190508181036000830152612a5681612a1a565b9050919050565b7f4552433732313a207472616e73666572206f6620746f6b656e2074686174206960008201527f73206e6f74206f776e0000000000000000000000000000000000000000000000602082015250565b6000612ab9602983611ea4565b9150612ac482612a5d565b604082019050919050565b60006020820190508181036000830152612ae881612aac565b9050919050565b7f4552433732313a207472616e7366657220746f20746865207a65726f2061646460008201527f7265737300000000000000000000000000000000000000000000000000000000602082015250565b6000612b4b602483611ea4565b9150612b5682612aef565b604082019050919050565b60006020820190508181036000830152612b7a81612b3e565b9050919050565b6000612b8c82611f54565b9150612b9783611f54565b925082821015612baa57612ba9612731565b5b828203905092915050565b6000612bc082611f54565b9150612bcb83611f54565b9250827fffffffffffffffffffffffffffffffffffffffffffffffffffffffffffffffff03821115612c0057612bff612731565b5b828201905092915050565b7f4e487b7100000000000000000000000000000000000000000000000000000000600052603260045260246000fd5b7f4552433732313a207472616e7366657220746f206e6f6e20455243373231526560008201527f63656976657220696d706c656d656e7465720000000000000000000000000000602082015250565b6000612c96603283611ea4565b9150612ca182612c3a565b604082019050919050565b60006020820190508181036000830152612cc581612c89565b9050919050565b7f546f6b656e204944206e6f7420666f756e640000000000000000000000000000600082015250565b6000612d02601283611ea4565b9150612d0d82612ccc565b602082019050919050565b60006020820190508181036000830152612d3181612cf5565b9050919050565b600081519050919050565b600082825260208201905092915050565b6000612d5f82612d38565b612d698185612d43565b9350612d79818560208601611eb5565b612d8281611ee8565b840191505092915050565b6000608082019050612da26000830187611fe9565b612daf6020830186611fe9565b612dbc60408301856120ff565b8181036060830152612dce8184612d54565b905095945050505050565b600081519050612de881611e0a565b92915050565b600060208284031215612e0457612e03611dd4565b5b6000612e1284828501612dd9565b91505092915050565b7f4552433732313a206d696e7420746f20746865207a65726f2061646472657373600082015250565b6000612e51602083611ea4565b9150612e5c82612e1b565b602082019050919050565b60006020820190508181036000830152612e8081612e44565b9050919050565b7f4552433732313a20746f6b656e20616c7265616479206d696e74656400000000600082015250565b6000612ebd601c83611ea4565b9150612ec882612e87565b602082019050919050565b60006020820190508181036000830152612eec81612eb0565b905091905056fe68747470733a2f2f697066732e696f2f697066732f516d6365486a52777a47597458776555746e426b55357359737355735461434866357338666777464c44526f594aa2646970667358221220f89cf7971c77e397470143a178a331e68a328eb14ea315dce52bada57a46669764736f6c634300080a0033",
  "immutableReferences": {},
  "source": "//SPDX-License-Identifier: MIT\r\n\r\npragma solidity ^0.8.0;\r\n\r\nimport \"@openzeppelin/contracts/token/ERC721/extensions/ERC721URIStorage.sol\";\r\n\r\ncontract VolcanoToken is ERC721 {\r\n    uint256 tokenId = 1;\r\n    mapping(address => Metadata[]) metadata;\r\n\r\n    struct Metadata {\r\n        uint256 timestamp;\r\n        uint256 tokenId;\r\n        string tokenURI;\r\n    }\r\n\r\n    constructor() ERC721(\"VolcanoToken\", \"VOL\") {}\r\n\r\n    function mintToken() public {\r\n        super._safeMint(msg.sender, tokenId);\r\n        Metadata memory newTokenData = Metadata(block.timestamp, tokenId, \"https://ipfs.io/ipfs/QmceHjRwzGYtXweUtnBkU5sYssUsTaCHf5s8fgwFLDRoYJ\");\r\n        metadata[msg.sender].push(newTokenData);\r\n        tokenId++;\r\n    }\r\n\r\n    function burnToken(uint256 _tokenId) public {\r\n        require(super.ownerOf(_tokenId) == msg.sender);\r\n        super._burn(_tokenId);\r\n        _removeTokenHistory(_tokenId);\r\n    }\r\n\r\n    function _removeTokenHistory(uint256 _tokenId) internal {\r\n        Metadata[] memory userTokens = metadata[msg.sender];\r\n        delete metadata[msg.sender];\r\n\r\n        for (uint i=0; i < userTokens.length; i++) { \r\n            if(userTokens[i].tokenId != _tokenId)\r\n            {\r\n                metadata[msg.sender].push(userTokens[i]);\r\n            }\r\n        }\r\n    }\r\n\r\n    function _getTokenURI(uint256 _tokenId) internal view returns (string memory) {\r\n        Metadata[] memory userTokens = metadata[msg.sender];\r\n\r\n        for (uint i=0; i < userTokens.length; i++) { \r\n            if(userTokens[i].tokenId == _tokenId)\r\n            {\r\n                return userTokens[i].tokenURI;\r\n            }\r\n        }\r\n\r\n        revert(\"Token ID not found\");\r\n    }\r\n\r\n    function tokenURI(uint256 _tokenId) public view override returns (string memory) {\r\n        return _getTokenURI(_tokenId);\r\n    }\r\n\r\n    function getTokenMetadata(address _account) public view returns (Metadata[] memory) {\r\n        return metadata[_account];\r\n    }\r\n}\r\n\r\n",
  "sourcePath": "C:\\Users\\dkerb\\Desktop\\dev\\encode-solidity-bootcamp\\Part8\\contracts\\VolcanoToken.sol",
  "compiler": {
    "name": "solc",
    "version": "0.8.10+commit.fc410830.Emscripten.clang"
  },
  "schemaVersion": "3.4.3",
  "updatedAt": "2021-11-29T08:24:31.844Z",
  "networkType": "ethereum",
  "devdoc": {
    "kind": "dev",
    "methods": {
      "approve(address,uint256)": {
        "details": "See {IERC721-approve}."
      },
      "balanceOf(address)": {
        "details": "See {IERC721-balanceOf}."
      },
      "getApproved(uint256)": {
        "details": "See {IERC721-getApproved}."
      },
      "isApprovedForAll(address,address)": {
        "details": "See {IERC721-isApprovedForAll}."
      },
      "name()": {
        "details": "See {IERC721Metadata-name}."
      },
      "ownerOf(uint256)": {
        "details": "See {IERC721-ownerOf}."
      },
      "safeTransferFrom(address,address,uint256)": {
        "details": "See {IERC721-safeTransferFrom}."
      },
      "safeTransferFrom(address,address,uint256,bytes)": {
        "details": "See {IERC721-safeTransferFrom}."
      },
      "setApprovalForAll(address,bool)": {
        "details": "See {IERC721-setApprovalForAll}."
      },
      "supportsInterface(bytes4)": {
        "details": "See {IERC165-supportsInterface}."
      },
      "symbol()": {
        "details": "See {IERC721Metadata-symbol}."
      },
      "transferFrom(address,address,uint256)": {
        "details": "See {IERC721-transferFrom}."
      }
    },
    "version": 1
  },
  "userdoc": {
    "kind": "user",
    "methods": {},
    "version": 1
  }
}